{
  "_format": "hh-sol-artifact-1",
  "contractName": "NRICClaimNFT",
  "sourceName": "contracts/NRICClaimNFT.sol",
  "abi": [
    {
      "inputs": [],
      "stateMutability": "nonpayable",
      "type": "constructor"
    },
    {
      "anonymous": false,
      "inputs": [
        {
          "indexed": true,
          "internalType": "address",
          "name": "owner",
          "type": "address"
        },
        {
          "indexed": true,
          "internalType": "address",
          "name": "approved",
          "type": "address"
        },
        {
          "indexed": true,
          "internalType": "uint256",
          "name": "tokenId",
          "type": "uint256"
        }
      ],
      "name": "Approval",
      "type": "event"
    },
    {
      "anonymous": false,
      "inputs": [
        {
          "indexed": true,
          "internalType": "address",
          "name": "owner",
          "type": "address"
        },
        {
          "indexed": true,
          "internalType": "address",
          "name": "operator",
          "type": "address"
        },
        {
          "indexed": false,
          "internalType": "bool",
          "name": "approved",
          "type": "bool"
        }
      ],
      "name": "ApprovalForAll",
      "type": "event"
    },
    {
      "anonymous": false,
      "inputs": [
        {
          "indexed": false,
          "internalType": "address",
          "name": "recipient",
          "type": "address"
        },
        {
          "indexed": false,
          "internalType": "uint256",
          "name": "tokenId",
          "type": "uint256"
        },
        {
          "indexed": false,
          "internalType": "string",
          "name": "metadataUrl",
          "type": "string"
        }
      ],
      "name": "Minted",
      "type": "event"
    },
    {
      "anonymous": false,
      "inputs": [
        {
          "indexed": true,
          "internalType": "address",
          "name": "from",
          "type": "address"
        },
        {
          "indexed": true,
          "internalType": "address",
          "name": "to",
          "type": "address"
        },
        {
          "indexed": true,
          "internalType": "uint256",
          "name": "tokenId",
          "type": "uint256"
        }
      ],
      "name": "Transfer",
      "type": "event"
    },
    {
      "inputs": [
        {
          "internalType": "address",
          "name": "to",
          "type": "address"
        },
        {
          "internalType": "uint256",
          "name": "tokenId",
          "type": "uint256"
        }
      ],
      "name": "approve",
      "outputs": [],
      "stateMutability": "nonpayable",
      "type": "function"
    },
    {
      "inputs": [
        {
          "internalType": "address",
          "name": "owner",
          "type": "address"
        }
      ],
      "name": "balanceOf",
      "outputs": [
        {
          "internalType": "uint256",
          "name": "",
          "type": "uint256"
        }
      ],
      "stateMutability": "view",
      "type": "function"
    },
    {
      "inputs": [],
      "name": "currentSupply",
      "outputs": [
        {
          "internalType": "uint256",
          "name": "",
          "type": "uint256"
        }
      ],
      "stateMutability": "view",
      "type": "function"
    },
    {
      "inputs": [
        {
          "internalType": "uint256",
          "name": "tokenId",
          "type": "uint256"
        }
      ],
      "name": "getApproved",
      "outputs": [
        {
          "internalType": "address",
          "name": "",
          "type": "address"
        }
      ],
      "stateMutability": "view",
      "type": "function"
    },
    {
      "inputs": [
        {
          "internalType": "uint256",
          "name": "tokenId",
          "type": "uint256"
        }
      ],
      "name": "getTokenURI",
      "outputs": [
        {
          "internalType": "string",
          "name": "",
          "type": "string"
        }
      ],
      "stateMutability": "view",
      "type": "function"
    },
    {
      "inputs": [
        {
          "internalType": "address",
          "name": "",
          "type": "address"
        }
      ],
      "name": "hasMinted",
      "outputs": [
        {
          "internalType": "bool",
          "name": "",
          "type": "bool"
        }
      ],
      "stateMutability": "view",
      "type": "function"
    },
    {
      "inputs": [
        {
          "internalType": "address",
          "name": "owner",
          "type": "address"
        },
        {
          "internalType": "address",
          "name": "operator",
          "type": "address"
        }
      ],
      "name": "isApprovedForAll",
      "outputs": [
        {
          "internalType": "bool",
          "name": "",
          "type": "bool"
        }
      ],
      "stateMutability": "view",
      "type": "function"
    },
    {
      "inputs": [],
      "name": "maxSupply",
      "outputs": [
        {
          "internalType": "uint256",
          "name": "",
          "type": "uint256"
        }
      ],
      "stateMutability": "view",
      "type": "function"
    },
    {
      "inputs": [],
      "name": "mintEnd",
      "outputs": [
        {
          "internalType": "uint256",
          "name": "",
          "type": "uint256"
        }
      ],
      "stateMutability": "view",
      "type": "function"
    },
    {
      "inputs": [
        {
          "internalType": "address",
          "name": "recipient",
          "type": "address"
        },
        {
          "internalType": "uint256",
          "name": "tokenId",
          "type": "uint256"
        },
        {
          "internalType": "string",
          "name": "metadataUrl",
          "type": "string"
        }
      ],
      "name": "mintNFT",
      "outputs": [],
      "stateMutability": "nonpayable",
      "type": "function"
    },
    {
      "inputs": [],
      "name": "mintStart",
      "outputs": [
        {
          "internalType": "uint256",
          "name": "",
          "type": "uint256"
        }
      ],
      "stateMutability": "view",
      "type": "function"
    },
    {
      "inputs": [],
      "name": "name",
      "outputs": [
        {
          "internalType": "string",
          "name": "",
          "type": "string"
        }
      ],
      "stateMutability": "view",
      "type": "function"
    },
    {
      "inputs": [
        {
          "internalType": "uint256",
          "name": "tokenId",
          "type": "uint256"
        }
      ],
      "name": "ownerOf",
      "outputs": [
        {
          "internalType": "address",
          "name": "",
          "type": "address"
        }
      ],
      "stateMutability": "view",
      "type": "function"
    },
    {
      "inputs": [
        {
          "internalType": "address",
          "name": "from",
          "type": "address"
        },
        {
          "internalType": "address",
          "name": "to",
          "type": "address"
        },
        {
          "internalType": "uint256",
          "name": "tokenId",
          "type": "uint256"
        }
      ],
      "name": "safeTransferFrom",
      "outputs": [],
      "stateMutability": "nonpayable",
      "type": "function"
    },
    {
      "inputs": [
        {
          "internalType": "address",
          "name": "from",
          "type": "address"
        },
        {
          "internalType": "address",
          "name": "to",
          "type": "address"
        },
        {
          "internalType": "uint256",
          "name": "tokenId",
          "type": "uint256"
        },
        {
          "internalType": "bytes",
          "name": "data",
          "type": "bytes"
        }
      ],
      "name": "safeTransferFrom",
      "outputs": [],
      "stateMutability": "nonpayable",
      "type": "function"
    },
    {
      "inputs": [
        {
          "internalType": "address",
          "name": "operator",
          "type": "address"
        },
        {
          "internalType": "bool",
          "name": "approved",
          "type": "bool"
        }
      ],
      "name": "setApprovalForAll",
      "outputs": [],
      "stateMutability": "nonpayable",
      "type": "function"
    },
    {
      "inputs": [
        {
          "internalType": "bytes4",
          "name": "interfaceId",
          "type": "bytes4"
        }
      ],
      "name": "supportsInterface",
      "outputs": [
        {
          "internalType": "bool",
          "name": "",
          "type": "bool"
        }
      ],
      "stateMutability": "view",
      "type": "function"
    },
    {
      "inputs": [],
      "name": "symbol",
      "outputs": [
        {
          "internalType": "string",
          "name": "",
          "type": "string"
        }
      ],
      "stateMutability": "view",
      "type": "function"
    },
    {
      "inputs": [
        {
          "internalType": "uint256",
          "name": "tokenId",
          "type": "uint256"
        }
      ],
      "name": "tokenURI",
      "outputs": [
        {
          "internalType": "string",
          "name": "",
          "type": "string"
        }
      ],
      "stateMutability": "view",
      "type": "function"
    },
    {
      "inputs": [
        {
          "internalType": "address",
          "name": "from",
          "type": "address"
        },
        {
          "internalType": "address",
          "name": "to",
          "type": "address"
        },
        {
          "internalType": "uint256",
          "name": "tokenId",
          "type": "uint256"
        }
      ],
      "name": "transferFrom",
      "outputs": [],
      "stateMutability": "nonpayable",
      "type": "function"
    }
  ],
  "bytecode": "0x60806040523480156200001157600080fd5b506040518060400160405280600581526020017f4d794e46540000000000000000000000000000000000000000000000000000008152506040518060400160405280600481526020017f4d4e46540000000000000000000000000000000000000000000000000000000081525081600090816200008f919062000354565b508060019081620000a1919062000354565b5050504260088190555062093a80600854620000be91906200046a565b6009819055506005600a819055506000600b81905550620004a5565b600081519050919050565b7f4e487b7100000000000000000000000000000000000000000000000000000000600052604160045260246000fd5b7f4e487b7100000000000000000000000000000000000000000000000000000000600052602260045260246000fd5b600060028204905060018216806200015c57607f821691505b60208210810362000172576200017162000114565b5b50919050565b60008190508160005260206000209050919050565b60006020601f8301049050919050565b600082821b905092915050565b600060088302620001dc7fffffffffffffffffffffffffffffffffffffffffffffffffffffffffffffffff826200019d565b620001e886836200019d565b95508019841693508086168417925050509392505050565b6000819050919050565b6000819050919050565b6000620002356200022f620002298462000200565b6200020a565b62000200565b9050919050565b6000819050919050565b620002518362000214565b6200026962000260826200023c565b848454620001aa565b825550505050565b600090565b6200028062000271565b6200028d81848462000246565b505050565b5b81811015620002b557620002a960008262000276565b60018101905062000293565b5050565b601f8211156200030457620002ce8162000178565b620002d9846200018d565b81016020851015620002e9578190505b62000301620002f8856200018d565b83018262000292565b50505b505050565b600082821c905092915050565b6000620003296000198460080262000309565b1980831691505092915050565b600062000344838362000316565b9150826002028217905092915050565b6200035f82620000da565b67ffffffffffffffff8111156200037b576200037a620000e5565b5b62000387825462000143565b62000394828285620002b9565b600060209050601f831160018114620003cc5760008415620003b7578287015190505b620003c3858262000336565b86555062000433565b601f198416620003dc8662000178565b60005b828110156200040657848901518255600182019150602085019450602081019050620003df565b8683101562000426578489015162000422601f89168262000316565b8355505b6001600288020188555050505b505050505050565b7f4e487b7100000000000000000000000000000000000000000000000000000000600052601160045260246000fd5b6000620004778262000200565b9150620004848362000200565b92508282019050808211156200049f576200049e6200043b565b5b92915050565b6133ea80620004b56000396000f3fe608060405234801561001057600080fd5b506004361061012c5760003560e01c80636352211e116100ad578063b88d4fde11610071578063b88d4fde14610355578063c87b56dd14610371578063d5abeb01146103a1578063e985e9c5146103bf578063ea2b4ab2146103ef5761012c565b80636352211e1461029d57806370a08231146102cd578063771282f6146102fd57806395d89b411461031b578063a22cb465146103395761012c565b806323b872dd116100f457806323b872dd146101e7578063255e46851461020357806338e21cce146102215780633bb3a24d1461025157806342842e0e146102815761012c565b806301ffc9a71461013157806306fdde0314610161578063081812fc1461017f578063095ea7b3146101af5780631e576912146101cb575b600080fd5b61014b60048036038101906101469190611f06565b61040d565b6040516101589190611f4e565b60405180910390f35b6101696104ef565b6040516101769190611ff9565b60405180910390f35b61019960048036038101906101949190612051565b610581565b6040516101a691906120bf565b60405180910390f35b6101c960048036038101906101c49190612106565b6105c7565b005b6101e560048036038101906101e0919061227b565b6106de565b005b61020160048036038101906101fc91906122ea565b610a2d565b005b61020b610a8d565b604051610218919061234c565b60405180910390f35b61023b60048036038101906102369190612367565b610a93565b6040516102489190611f4e565b60405180910390f35b61026b60048036038101906102669190612051565b610ab3565b6040516102789190611ff9565b60405180910390f35b61029b600480360381019061029691906122ea565b610b0d565b005b6102b760048036038101906102b29190612051565b610b2d565b6040516102c491906120bf565b60405180910390f35b6102e760048036038101906102e29190612367565b610bb3565b6040516102f4919061234c565b60405180910390f35b610305610c6a565b604051610312919061234c565b60405180910390f35b610323610c70565b6040516103309190611ff9565b60405180910390f35b610353600480360381019061034e91906123c0565b610d02565b005b61036f600480360381019061036a91906124a1565b610d18565b005b61038b60048036038101906103869190612051565b610d7a565b6040516103989190611ff9565b60405180910390f35b6103a9610e8c565b6040516103b6919061234c565b60405180910390f35b6103d960048036038101906103d49190612524565b610e92565b6040516103e69190611f4e565b60405180910390f35b6103f7610f26565b604051610404919061234c565b60405180910390f35b60007f80ac58cd000000000000000000000000000000000000000000000000000000007bffffffffffffffffffffffffffffffffffffffffffffffffffffffff1916827bffffffffffffffffffffffffffffffffffffffffffffffffffffffff191614806104d857507f5b5e139f000000000000000000000000000000000000000000000000000000007bffffffffffffffffffffffffffffffffffffffffffffffffffffffff1916827bffffffffffffffffffffffffffffffffffffffffffffffffffffffff1916145b806104e857506104e782610f2c565b5b9050919050565b6060600080546104fe90612593565b80601f016020809104026020016040519081016040528092919081815260200182805461052a90612593565b80156105775780601f1061054c57610100808354040283529160200191610577565b820191906000526020600020905b81548152906001019060200180831161055a57829003601f168201915b5050505050905090565b600061058c82610f96565b6004600083815260200190815260200160002060009054906101000a900473ffffffffffffffffffffffffffffffffffffffff169050919050565b60006105d282610b2d565b90508073ffffffffffffffffffffffffffffffffffffffff168373ffffffffffffffffffffffffffffffffffffffff1603610642576040517f08c379a000000000000000000000000000000000000000000000000000000000815260040161063990612636565b60405180910390fd5b8073ffffffffffffffffffffffffffffffffffffffff16610661610fe1565b73ffffffffffffffffffffffffffffffffffffffff161480610690575061068f8161068a610fe1565b610e92565b5b6106cf576040517f08c379a00000000000000000000000000000000000000000000000000000000081526004016106c6906126c8565b60405180910390fd5b6106d98383610fe9565b505050565b60085442101580156106f257506009544211155b610731576040517f08c379a000000000000000000000000000000000000000000000000000000000815260040161072890612734565b60405180910390fd5b600760003373ffffffffffffffffffffffffffffffffffffffff1673ffffffffffffffffffffffffffffffffffffffff16815260200190815260200160002060009054906101000a900460ff16156107be576040517f08c379a00000000000000000000000000000000000000000000000000000000081526004016107b5906127a0565b60405180910390fd5b600a54600b5410610804576040517f08c379a00000000000000000000000000000000000000000000000000000000081526004016107fb9061280c565b60405180910390fd5b6000821180156108165750600a548211155b610855576040517f08c379a000000000000000000000000000000000000000000000000000000000815260040161084c90612878565b60405180910390fd5b6001600b600082825461086891906128c7565b9250508190555061087983836110a2565b61088382826110c0565b600061088e83610ab3565b9050816040516020016108a19190612937565b60405160208183030381529060405280519060200120816040516020016108c89190612937565b604051602081830303815290604052805190602001201461091e576040517f08c379a00000000000000000000000000000000000000000000000000000000081526004016109159061299a565b60405180910390fd5b6109946040518060400160405280601581526020017f546f6b656e2055524920666f7220746f6b656e49640000000000000000000000815250846040518060400160405280600181526020017f3a000000000000000000000000000000000000000000000000000000000000008152508461112d565b7fe7cd4ce7f2a465edc730269a1305e8a48bad821e8fb7e152ec413829c01a53c48484846040516109c7939291906129ba565b60405180910390a16001600760003373ffffffffffffffffffffffffffffffffffffffff1673ffffffffffffffffffffffffffffffffffffffff16815260200190815260200160002060006101000a81548160ff02191690831515021790555050505050565b610a3e610a38610fe1565b826111cf565b610a7d576040517f08c379a0000000000000000000000000000000000000000000000000000000008152600401610a7490612a6a565b60405180910390fd5b610a88838383611264565b505050565b60085481565b60076020528060005260406000206000915054906101000a900460ff1681565b6060610abe8261155d565b610afd576040517f08c379a0000000000000000000000000000000000000000000000000000000008152600401610af490612afc565b60405180910390fd5b610b0682610d7a565b9050919050565b610b2883838360405180602001604052806000815250610d18565b505050565b600080610b398361159e565b9050600073ffffffffffffffffffffffffffffffffffffffff168173ffffffffffffffffffffffffffffffffffffffff1603610baa576040517f08c379a0000000000000000000000000000000000000000000000000000000008152600401610ba190612b68565b60405180910390fd5b80915050919050565b60008073ffffffffffffffffffffffffffffffffffffffff168273ffffffffffffffffffffffffffffffffffffffff1603610c23576040517f08c379a0000000000000000000000000000000000000000000000000000000008152600401610c1a90612bfa565b60405180910390fd5b600360008373ffffffffffffffffffffffffffffffffffffffff1673ffffffffffffffffffffffffffffffffffffffff168152602001908152602001600020549050919050565b600b5481565b606060018054610c7f90612593565b80601f0160208091040260200160405190810160405280929190818152602001828054610cab90612593565b8015610cf85780601f10610ccd57610100808354040283529160200191610cf8565b820191906000526020600020905b815481529060010190602001808311610cdb57829003601f168201915b5050505050905090565b610d14610d0d610fe1565b83836115db565b5050565b610d29610d23610fe1565b836111cf565b610d68576040517f08c379a0000000000000000000000000000000000000000000000000000000008152600401610d5f90612a6a565b60405180910390fd5b610d7484848484611747565b50505050565b6060610d8582610f96565b6000600660008481526020019081526020016000208054610da590612593565b80601f0160208091040260200160405190810160405280929190818152602001828054610dd190612593565b8015610e1e5780601f10610df357610100808354040283529160200191610e1e565b820191906000526020600020905b815481529060010190602001808311610e0157829003601f168201915b505050505090506000610e2f6117a3565b90506000815103610e44578192505050610e87565b600082511115610e79578082604051602001610e61929190612c1a565b60405160208183030381529060405292505050610e87565b610e82846117ba565b925050505b919050565b600a5481565b6000600560008473ffffffffffffffffffffffffffffffffffffffff1673ffffffffffffffffffffffffffffffffffffffff16815260200190815260200160002060008373ffffffffffffffffffffffffffffffffffffffff1673ffffffffffffffffffffffffffffffffffffffff16815260200190815260200160002060009054906101000a900460ff16905092915050565b60095481565b60007f01ffc9a7000000000000000000000000000000000000000000000000000000007bffffffffffffffffffffffffffffffffffffffffffffffffffffffff1916827bffffffffffffffffffffffffffffffffffffffffffffffffffffffff1916149050919050565b610f9f8161155d565b610fde576040517f08c379a0000000000000000000000000000000000000000000000000000000008152600401610fd590612b68565b60405180910390fd5b50565b600033905090565b816004600083815260200190815260200160002060006101000a81548173ffffffffffffffffffffffffffffffffffffffff021916908373ffffffffffffffffffffffffffffffffffffffff160217905550808273ffffffffffffffffffffffffffffffffffffffff1661105c83610b2d565b73ffffffffffffffffffffffffffffffffffffffff167f8c5be1e5ebec7d5bd14f71427d1e84f3dd0314c0f7b2291e5b200ac8c7c3b92560405160405180910390a45050565b6110bc828260405180602001604052806000815250611822565b5050565b6110c98261155d565b611108576040517f08c379a00000000000000000000000000000000000000000000000000000000081526004016110ff90612cb0565b60405180910390fd5b806006600084815260200190815260200160002090816111289190612e7c565b505050565b6111c9848484846040516024016111479493929190612f4e565b6040516020818303038152906040527f5ab84e1f000000000000000000000000000000000000000000000000000000007bffffffffffffffffffffffffffffffffffffffffffffffffffffffff19166020820180517bffffffffffffffffffffffffffffffffffffffffffffffffffffffff838183161783525050505061187d565b50505050565b6000806111db83610b2d565b90508073ffffffffffffffffffffffffffffffffffffffff168473ffffffffffffffffffffffffffffffffffffffff16148061121d575061121c8185610e92565b5b8061125b57508373ffffffffffffffffffffffffffffffffffffffff1661124384610581565b73ffffffffffffffffffffffffffffffffffffffff16145b91505092915050565b8273ffffffffffffffffffffffffffffffffffffffff1661128482610b2d565b73ffffffffffffffffffffffffffffffffffffffff16146112da576040517f08c379a00000000000000000000000000000000000000000000000000000000081526004016112d19061301a565b60405180910390fd5b600073ffffffffffffffffffffffffffffffffffffffff168273ffffffffffffffffffffffffffffffffffffffff1603611349576040517f08c379a0000000000000000000000000000000000000000000000000000000008152600401611340906130ac565b60405180910390fd5b61135683838360016118a6565b8273ffffffffffffffffffffffffffffffffffffffff1661137682610b2d565b73ffffffffffffffffffffffffffffffffffffffff16146113cc576040517f08c379a00000000000000000000000000000000000000000000000000000000081526004016113c39061301a565b60405180910390fd5b6004600082815260200190815260200160002060006101000a81549073ffffffffffffffffffffffffffffffffffffffff02191690556001600360008573ffffffffffffffffffffffffffffffffffffffff1673ffffffffffffffffffffffffffffffffffffffff168152602001908152602001600020600082825403925050819055506001600360008473ffffffffffffffffffffffffffffffffffffffff1673ffffffffffffffffffffffffffffffffffffffff16815260200190815260200160002060008282540192505081905550816002600083815260200190815260200160002060006101000a81548173ffffffffffffffffffffffffffffffffffffffff021916908373ffffffffffffffffffffffffffffffffffffffff160217905550808273ffffffffffffffffffffffffffffffffffffffff168473ffffffffffffffffffffffffffffffffffffffff167fddf252ad1be2c89b69c2b068fc378daa952ba7f163c4a11628f55a4df523b3ef60405160405180910390a461155883838360016118ac565b505050565b60008073ffffffffffffffffffffffffffffffffffffffff1661157f8361159e565b73ffffffffffffffffffffffffffffffffffffffff1614159050919050565b60006002600083815260200190815260200160002060009054906101000a900473ffffffffffffffffffffffffffffffffffffffff169050919050565b8173ffffffffffffffffffffffffffffffffffffffff168373ffffffffffffffffffffffffffffffffffffffff1603611649576040517f08c379a000000000000000000000000000000000000000000000000000000000815260040161164090613118565b60405180910390fd5b80600560008573ffffffffffffffffffffffffffffffffffffffff1673ffffffffffffffffffffffffffffffffffffffff16815260200190815260200160002060008473ffffffffffffffffffffffffffffffffffffffff1673ffffffffffffffffffffffffffffffffffffffff16815260200190815260200160002060006101000a81548160ff0219169083151502179055508173ffffffffffffffffffffffffffffffffffffffff168373ffffffffffffffffffffffffffffffffffffffff167f17307eab39ab6107e8899845ad3d59bd9653f200f220920489ca2b5937696c318360405161173a9190611f4e565b60405180910390a3505050565b611752848484611264565b61175e848484846118b2565b61179d576040517f08c379a0000000000000000000000000000000000000000000000000000000008152600401611794906131aa565b60405180910390fd5b50505050565b606060405180602001604052806000815250905090565b60606117c582610f96565b60006117cf6117a3565b905060008151116117ef576040518060200160405280600081525061181a565b806117f984611a39565b60405160200161180a929190612c1a565b6040516020818303038152906040525b915050919050565b61182c8383611b07565b61183960008484846118b2565b611878576040517f08c379a000000000000000000000000000000000000000000000000000000000815260040161186f906131aa565b60405180910390fd5b505050565b60008151905060006a636f6e736f6c652e6c6f679050602083016000808483855afa5050505050565b50505050565b50505050565b60006118d38473ffffffffffffffffffffffffffffffffffffffff16611d24565b15611a2c578373ffffffffffffffffffffffffffffffffffffffff1663150b7a026118fc610fe1565b8786866040518563ffffffff1660e01b815260040161191e949392919061321f565b6020604051808303816000875af192505050801561195a57506040513d601f19601f820116820180604052508101906119579190613280565b60015b6119dc573d806000811461198a576040519150601f19603f3d011682016040523d82523d6000602084013e61198f565b606091505b5060008151036119d4576040517f08c379a00000000000000000000000000000000000000000000000000000000081526004016119cb906131aa565b60405180910390fd5b805181602001fd5b63150b7a0260e01b7bffffffffffffffffffffffffffffffffffffffffffffffffffffffff1916817bffffffffffffffffffffffffffffffffffffffffffffffffffffffff191614915050611a31565b600190505b949350505050565b606060006001611a4884611d47565b01905060008167ffffffffffffffff811115611a6757611a66612150565b5b6040519080825280601f01601f191660200182016040528015611a995781602001600182028036833780820191505090505b509050600082602001820190505b600115611afc578080600190039150507f3031323334353637383961626364656600000000000000000000000000000000600a86061a8153600a8581611af057611aef6132ad565b5b04945060008503611aa7575b819350505050919050565b600073ffffffffffffffffffffffffffffffffffffffff168273ffffffffffffffffffffffffffffffffffffffff1603611b76576040517f08c379a0000000000000000000000000000000000000000000000000000000008152600401611b6d90613328565b60405180910390fd5b611b7f8161155d565b15611bbf576040517f08c379a0000000000000000000000000000000000000000000000000000000008152600401611bb690613394565b60405180910390fd5b611bcd6000838360016118a6565b611bd68161155d565b15611c16576040517f08c379a0000000000000000000000000000000000000000000000000000000008152600401611c0d90613394565b60405180910390fd5b6001600360008473ffffffffffffffffffffffffffffffffffffffff1673ffffffffffffffffffffffffffffffffffffffff16815260200190815260200160002060008282540192505081905550816002600083815260200190815260200160002060006101000a81548173ffffffffffffffffffffffffffffffffffffffff021916908373ffffffffffffffffffffffffffffffffffffffff160217905550808273ffffffffffffffffffffffffffffffffffffffff16600073ffffffffffffffffffffffffffffffffffffffff167fddf252ad1be2c89b69c2b068fc378daa952ba7f163c4a11628f55a4df523b3ef60405160405180910390a4611d206000838360016118ac565b5050565b6000808273ffffffffffffffffffffffffffffffffffffffff163b119050919050565b600080600090507a184f03e93ff9f4daa797ed6e38ed64bf6a1f0100000000000000008310611da5577a184f03e93ff9f4daa797ed6e38ed64bf6a1f0100000000000000008381611d9b57611d9a6132ad565b5b0492506040810190505b6d04ee2d6d415b85acef81000000008310611de2576d04ee2d6d415b85acef81000000008381611dd857611dd76132ad565b5b0492506020810190505b662386f26fc100008310611e1157662386f26fc100008381611e0757611e066132ad565b5b0492506010810190505b6305f5e1008310611e3a576305f5e1008381611e3057611e2f6132ad565b5b0492506008810190505b6127108310611e5f576127108381611e5557611e546132ad565b5b0492506004810190505b60648310611e825760648381611e7857611e776132ad565b5b0492506002810190505b600a8310611e91576001810190505b80915050919050565b6000604051905090565b600080fd5b600080fd5b60007fffffffff0000000000000000000000000000000000000000000000000000000082169050919050565b611ee381611eae565b8114611eee57600080fd5b50565b600081359050611f0081611eda565b92915050565b600060208284031215611f1c57611f1b611ea4565b5b6000611f2a84828501611ef1565b91505092915050565b60008115159050919050565b611f4881611f33565b82525050565b6000602082019050611f636000830184611f3f565b92915050565b600081519050919050565b600082825260208201905092915050565b60005b83811015611fa3578082015181840152602081019050611f88565b60008484015250505050565b6000601f19601f8301169050919050565b6000611fcb82611f69565b611fd58185611f74565b9350611fe5818560208601611f85565b611fee81611faf565b840191505092915050565b600060208201905081810360008301526120138184611fc0565b905092915050565b6000819050919050565b61202e8161201b565b811461203957600080fd5b50565b60008135905061204b81612025565b92915050565b60006020828403121561206757612066611ea4565b5b60006120758482850161203c565b91505092915050565b600073ffffffffffffffffffffffffffffffffffffffff82169050919050565b60006120a98261207e565b9050919050565b6120b98161209e565b82525050565b60006020820190506120d460008301846120b0565b92915050565b6120e38161209e565b81146120ee57600080fd5b50565b600081359050612100816120da565b92915050565b6000806040838503121561211d5761211c611ea4565b5b600061212b858286016120f1565b925050602061213c8582860161203c565b9150509250929050565b600080fd5b600080fd5b7f4e487b7100000000000000000000000000000000000000000000000000000000600052604160045260246000fd5b61218882611faf565b810181811067ffffffffffffffff821117156121a7576121a6612150565b5b80604052505050565b60006121ba611e9a565b90506121c6828261217f565b919050565b600067ffffffffffffffff8211156121e6576121e5612150565b5b6121ef82611faf565b9050602081019050919050565b82818337600083830152505050565b600061221e612219846121cb565b6121b0565b90508281526020810184848401111561223a5761223961214b565b5b6122458482856121fc565b509392505050565b600082601f83011261226257612261612146565b5b813561227284826020860161220b565b91505092915050565b60008060006060848603121561229457612293611ea4565b5b60006122a2868287016120f1565b93505060206122b38682870161203c565b925050604084013567ffffffffffffffff8111156122d4576122d3611ea9565b5b6122e08682870161224d565b9150509250925092565b60008060006060848603121561230357612302611ea4565b5b6000612311868287016120f1565b9350506020612322868287016120f1565b92505060406123338682870161203c565b9150509250925092565b6123468161201b565b82525050565b6000602082019050612361600083018461233d565b92915050565b60006020828403121561237d5761237c611ea4565b5b600061238b848285016120f1565b91505092915050565b61239d81611f33565b81146123a857600080fd5b50565b6000813590506123ba81612394565b92915050565b600080604083850312156123d7576123d6611ea4565b5b60006123e5858286016120f1565b92505060206123f6858286016123ab565b9150509250929050565b600067ffffffffffffffff82111561241b5761241a612150565b5b61242482611faf565b9050602081019050919050565b600061244461243f84612400565b6121b0565b9050828152602081018484840111156124605761245f61214b565b5b61246b8482856121fc565b509392505050565b600082601f83011261248857612487612146565b5b8135612498848260208601612431565b91505092915050565b600080600080608085870312156124bb576124ba611ea4565b5b60006124c9878288016120f1565b94505060206124da878288016120f1565b93505060406124eb8782880161203c565b925050606085013567ffffffffffffffff81111561250c5761250b611ea9565b5b61251887828801612473565b91505092959194509250565b6000806040838503121561253b5761253a611ea4565b5b6000612549858286016120f1565b925050602061255a858286016120f1565b9150509250929050565b7f4e487b7100000000000000000000000000000000000000000000000000000000600052602260045260246000fd5b600060028204905060018216806125ab57607f821691505b6020821081036125be576125bd612564565b5b50919050565b7f4552433732313a20617070726f76616c20746f2063757272656e74206f776e6560008201527f7200000000000000000000000000000000000000000000000000000000000000602082015250565b6000612620602183611f74565b915061262b826125c4565b604082019050919050565b6000602082019050818103600083015261264f81612613565b9050919050565b7f4552433732313a20617070726f76652063616c6c6572206973206e6f7420746f60008201527f6b656e206f776e6572206f7220617070726f76656420666f7220616c6c000000602082015250565b60006126b2603d83611f74565b91506126bd82612656565b604082019050919050565b600060208201905081810360008301526126e1816126a5565b9050919050565b7f4d696e74696e6720706572696f64206973206f76657200000000000000000000600082015250565b600061271e601683611f74565b9150612729826126e8565b602082019050919050565b6000602082019050818103600083015261274d81612711565b9050919050565b7f57616c6c65742068617320616c7265616479206d696e74656400000000000000600082015250565b600061278a601983611f74565b915061279582612754565b602082019050919050565b600060208201905081810360008301526127b98161277d565b9050919050565b7f4d6178204e465420737570706c79207265616368656400000000000000000000600082015250565b60006127f6601683611f74565b9150612801826127c0565b602082019050919050565b60006020820190508181036000830152612825816127e9565b9050919050565b7f496e76616c696420746f6b656e49640000000000000000000000000000000000600082015250565b6000612862600f83611f74565b915061286d8261282c565b602082019050919050565b6000602082019050818103600083015261289181612855565b9050919050565b7f4e487b7100000000000000000000000000000000000000000000000000000000600052601160045260246000fd5b60006128d28261201b565b91506128dd8361201b565b92508282019050808211156128f5576128f4612898565b5b92915050565b600081905092915050565b600061291182611f69565b61291b81856128fb565b935061292b818560208601611f85565b80840191505092915050565b60006129438284612906565b915081905092915050565b7f4d657461646174612055524c206e6f742073657420636f72726563746c790000600082015250565b6000612984601e83611f74565b915061298f8261294e565b602082019050919050565b600060208201905081810360008301526129b381612977565b9050919050565b60006060820190506129cf60008301866120b0565b6129dc602083018561233d565b81810360408301526129ee8184611fc0565b9050949350505050565b7f4552433732313a2063616c6c6572206973206e6f7420746f6b656e206f776e6560008201527f72206f7220617070726f76656400000000000000000000000000000000000000602082015250565b6000612a54602d83611f74565b9150612a5f826129f8565b604082019050919050565b60006020820190508181036000830152612a8381612a47565b9050919050565b7f4552433732314d657461646174613a2055524920717565727920666f72206e6f60008201527f6e6578697374656e7420746f6b656e0000000000000000000000000000000000602082015250565b6000612ae6602f83611f74565b9150612af182612a8a565b604082019050919050565b60006020820190508181036000830152612b1581612ad9565b9050919050565b7f4552433732313a20696e76616c696420746f6b656e2049440000000000000000600082015250565b6000612b52601883611f74565b9150612b5d82612b1c565b602082019050919050565b60006020820190508181036000830152612b8181612b45565b9050919050565b7f4552433732313a2061646472657373207a65726f206973206e6f74206120766160008201527f6c6964206f776e65720000000000000000000000000000000000000000000000602082015250565b6000612be4602983611f74565b9150612bef82612b88565b604082019050919050565b60006020820190508181036000830152612c1381612bd7565b9050919050565b6000612c268285612906565b9150612c328284612906565b91508190509392505050565b7f45524337323155524953746f726167653a2055524920736574206f66206e6f6e60008201527f6578697374656e7420746f6b656e000000000000000000000000000000000000602082015250565b6000612c9a602e83611f74565b9150612ca582612c3e565b604082019050919050565b60006020820190508181036000830152612cc981612c8d565b9050919050565b60008190508160005260206000209050919050565b60006020601f8301049050919050565b600082821b905092915050565b600060088302612d327fffffffffffffffffffffffffffffffffffffffffffffffffffffffffffffffff82612cf5565b612d3c8683612cf5565b95508019841693508086168417925050509392505050565b6000819050919050565b6000612d79612d74612d6f8461201b565b612d54565b61201b565b9050919050565b6000819050919050565b612d9383612d5e565b612da7612d9f82612d80565b848454612d02565b825550505050565b600090565b612dbc612daf565b612dc7818484612d8a565b505050565b5b81811015612deb57612de0600082612db4565b600181019050612dcd565b5050565b601f821115612e3057612e0181612cd0565b612e0a84612ce5565b81016020851015612e19578190505b612e2d612e2585612ce5565b830182612dcc565b50505b505050565b600082821c905092915050565b6000612e5360001984600802612e35565b1980831691505092915050565b6000612e6c8383612e42565b9150826002028217905092915050565b612e8582611f69565b67ffffffffffffffff811115612e9e57612e9d612150565b5b612ea88254612593565b612eb3828285612def565b600060209050601f831160018114612ee65760008415612ed4578287015190505b612ede8582612e60565b865550612f46565b601f198416612ef486612cd0565b60005b82811015612f1c57848901518255600182019150602085019450602081019050612ef7565b86831015612f395784890151612f35601f891682612e42565b8355505b6001600288020188555050505b505050505050565b60006080820190508181036000830152612f688187611fc0565b9050612f77602083018661233d565b8181036040830152612f898185611fc0565b90508181036060830152612f9d8184611fc0565b905095945050505050565b7f4552433732313a207472616e736665722066726f6d20696e636f72726563742060008201527f6f776e6572000000000000000000000000000000000000000000000000000000602082015250565b6000613004602583611f74565b915061300f82612fa8565b604082019050919050565b6000602082019050818103600083015261303381612ff7565b9050919050565b7f4552433732313a207472616e7366657220746f20746865207a65726f2061646460008201527f7265737300000000000000000000000000000000000000000000000000000000602082015250565b6000613096602483611f74565b91506130a18261303a565b604082019050919050565b600060208201905081810360008301526130c581613089565b9050919050565b7f4552433732313a20617070726f766520746f2063616c6c657200000000000000600082015250565b6000613102601983611f74565b915061310d826130cc565b602082019050919050565b60006020820190508181036000830152613131816130f5565b9050919050565b7f4552433732313a207472616e7366657220746f206e6f6e20455243373231526560008201527f63656976657220696d706c656d656e7465720000000000000000000000000000602082015250565b6000613194603283611f74565b915061319f82613138565b604082019050919050565b600060208201905081810360008301526131c381613187565b9050919050565b600081519050919050565b600082825260208201905092915050565b60006131f1826131ca565b6131fb81856131d5565b935061320b818560208601611f85565b61321481611faf565b840191505092915050565b600060808201905061323460008301876120b0565b61324160208301866120b0565b61324e604083018561233d565b818103606083015261326081846131e6565b905095945050505050565b60008151905061327a81611eda565b92915050565b60006020828403121561329657613295611ea4565b5b60006132a48482850161326b565b91505092915050565b7f4e487b7100000000000000000000000000000000000000000000000000000000600052601260045260246000fd5b7f4552433732313a206d696e7420746f20746865207a65726f2061646472657373600082015250565b6000613312602083611f74565b915061331d826132dc565b602082019050919050565b6000602082019050818103600083015261334181613305565b9050919050565b7f4552433732313a20746f6b656e20616c7265616479206d696e74656400000000600082015250565b600061337e601c83611f74565b915061338982613348565b602082019050919050565b600060208201905081810360008301526133ad81613371565b905091905056fea2646970667358221220a6714dc1675cb60fd65f6e72f6f088fff78a53bee39822a8321b91c9d85b660c64736f6c63430008120033",
  "linkReferences": {},
  "deployedLinkReferences": {}
}